:02000000800C72
:10000B0002005D90008675803F75A03F75300075CE
:10001B003100753200758901758A3C758CB020B73B
:10002B00FD12009020B7FDE532B4000DD28C75A8FF
:10003B008230B7FD0532020029B4010DC28C75A8C0
:10004B000030B7FD0532020029B402D230B7FD02F1
:10005B00000E758C3C758AB00531E531B4021B7509
:10006B0031000530E530B46403753000E53075F0D0
:10007B000A8493F580E5F093F5A0323F065B4F665B
:0E008B006D7D077F6F7E147FFADFFEDEFA22A6
:00000001FF
