:0A012C00C0F9A4B0999282F8809007
:030003000108638E
:10009A00758901758C4C758AD0D2AFD2A9D28CE5FC
:1000AA000875F00A12010AFF3395E0FE742C2FF549
:1000BA008274013EF583E493F580E50875F00A122F
:1000CA00010AAFF0EF3395E0FE742C2FF58274012C
:0900DA003EF583E493F5A080C615
:03000B000200E30D
:1000E300C0E0C0D0758C4C758AD00509E509B414FD
:1000F300117509001508C3E50864809480500375E1
:070103000863D0D0D0E03208
:0300000002000EED
:0C000E00787FE4F6D8FD758109020055EA
:10010A00C2D530F707B2D563F0FF05F030E70CB27D
:10011A00D5F4048463F0FF05F080018430D502F43D
:02012A000422AD
:10001A0002009AE493A3F8E493A34003F68001F262
:10002A0008DFF48029E493A3F85407240CC8C333E7
:10003A00C4540F4420C8834004F456800146F6DFB6
:10004A00E4800B0102040810204080900003E47E43
:10005A00019360BCA3FF543F30E509541FFEE493AB
:10006A00A360010ECF54C025E060A840B8E493A372
:10007A00FAE493A3F8E493A3C8C582C8CAC583CA9D
:10008A00F0A3C8C582C8CAC583CADFE9DEE780BE55
:0100060000F9
:00000001FF
