:100D73002030202000503A00533A005450574D3A47
:0A0D83000050533A002020202020E9
:100B9D000235FFFF023F0001012D00022F00000270
:100BAD002B0000012E00C101C180044D000000008A
:100BBD00043100000000042700000000043700008D
:100BCD000000044141C80000045541C8000004491B
:0E0BDD0041C800000445000000000221000095
:100D0100EF1FAA0670011E4A60137D01EDD3940006
:0D0D110040EE7C8E7B02DBFEDCFA1D80EFE5
:010D1E0022B2
:060C7C008B168A1789188F
:100C8200E4FFAB19AA1AA91B8F8275830012045ABA
:100C92006011AB16AA17A9188F82758300120487F8
:100CA2000F80DFAB16AA17A9188F82758300E402A2
:020CB2000487B5
:060B3C008B598A5A895B07
:100B4200E4FEAB59AA5AA95B8E8275830012045A3D
:100B5200FD601EAB5CAA5DA95E8E827583001204E5
:100B62005A600EB505047F018004E4FF80030E8005
:100B7200D1EF64017024AB59AA5AA95B8E82F58326
:100B820012045A7013AB5CAA5DA95E8E82F58312C1
:0A0B9200045A70047F018002E4FFA2
:010B9C002236
:070003007F027E00020D01E7
:100DA500A907120003C2A1C2A28980D2A000000037
:040DB50000C2A022B6
:100DB900A907120003C2A1D2A28980D2A000000013
:040DC90000C2A022A2
:100CB4007F0F7E00120D01C2A1C2A2758038D2A09E
:100CC40000000000C2A07F057E00120D017F0C12FF
:0C0CD4000DA57F06120DA57F01020DA5E5
:070D3D00E50B250FFDAF0AD5
:100D4400EF7007ED4480F5158005ED44C0F515AF4F
:040D540015020DA5D2
:060DE0007B2B7D0A7F0160
:0A0DE6008B0A120D44AF0A020DB98A
:040C36007BFFE4FF5D
:0A0C3A008F088D098B0A8A0B890CC4
:100C4400E4F50DF50DAB0AAA0BA90C850D8275838D
:100C54000012045A6021E509250DFDAF08120D4468
:100C6400AB0AAA0BA90C850D8275830012045AFFE6
:070C7400120DB9050D80CE41
:010C7B002256
:06050C007D0B7B047F0162
:060512008F0A8D0B8B0C1B
:10051800E4F50F78107C00FD7BFF7A0D7988FE7F6B
:1005280005120434C3E50E9410E50D9427407AAE05
:100538000DAF0E7C277D101204A9EF2430F510AE04
:100548000DAF0E7C277D101204A97E037FE8CFCD66
:10055800CFCECCCE1204A9EF2430F511AE0DAF0EDC
:100568007C037DE81204A97E007F64CFCDCFCECC7A
:10057800CE1204A9EF2430F512AE0DAF0E7C007D2B
:10058800641204A97E007F0ACFCDCFCECCCE120450
:10059800A9EF2430F513AE0DAF0E7C007D0A1204CE
:1005A800A9ED2430F5140206A9C3E50E94E8E50D7B
:1005B80094034060AE0DAF0E7C037DE81204A9EFF2
:1005C8002430F510AE0DAF0E7C037DE81204A97E31
:1005D800007F64CFCDCFCECCCE1204A9EF2430F566
:1005E80011AE0DAF0E7C007D641204A97E007F0A57
:1005F800CFCDCFCECCCE1204A9EF2430F512AE0D5C
:10060800AF0E7C007D0A1204A9ED2430F513E4F541
:10061800140206A9C3E50E9464E50D94004042AEA9
:100628000DAF0E7C007D641204A9EF2430F510AEE6
:100638000DAF0E7C007D641204A97E007F0ACFCD29
:10064800CFCECCCE1204A9EF2430F511AE0DAF0EEB
:100658007C007D0A1204A9ED2430F512E4F513801C
:1006680040C3E50E940AE50D94004025AE0DAF0E8B
:100678007C007D0A1204A9EF2430F510AE0DAF0EF0
:100688007C007D0A1204A9ED2430F511E4F51280EE
:1006980010C3E50D94004009E50E2430F510E4F58B
:1006A80011E4F50F7410250FF8E66013E50FC395F4
:1006B8000C500C120D3D7410250FF8E6FF801474D1
:1006C80010250FF8E6700FE50FC3950C5008120DB2
:0F06D8003D7F20120DB9050FE50FD3940540C5E6
:0106E70022F0
:100D1F00EF1FAA0670011E4A60137D01EDD39400E8
:0D0D2F0040EE7C8E7B02DBFEDCFA1D80EFC7
:010D3C002294
:100D5800D2AFD2A9D2ABD2AD75891575C901758A42
:0B0D6800FF758CFF75CD3C75CCB022F0
:03001B00020BECE9
:100BEC00C0E0C0D075D000C005C007E52D701775EA
:100BFC002D01D297C3E5369540CFE535953FCF24EF
:100C0C0001FDE43F8015752D00C297E5362540CFD8
:100C1C00E535353FCF24F1FDEF34D8F58DAF058F99
:0A0C2C008BD007D005D0D0D0E03205
:03000B00020DCD16
:100DCD00C0E0758AFF758CFF052CE52C7002052B94
:030DDD00D0E03231
:03002B00020CE0E4
:100CE000C0E0C0D0C2CF75CD3C75CCB0052EE52E8E
:100CF000B40209C28CC2CA752E00D201D0D0D0E095
:010D000032C0
:100D8D00E4F52BF52CF52E758AFF758CFF75CD3C92
:080D9D0075CCB0D28CD2CA2241
:10085500AB50AA4FA94EA84DAF44AE43AD42AC41F3
:100865001200318F268E258D248C23AB34AA33A913
:1008750032A831AF44AE43AD42AC411200318F5482
:100885008E538D528C51AB2AAA29A928A827AF448B
:10089500AE43AD42AC411200318F3E8E3D8D3C8C56
:1008A5003BAB54AA53A952A851AF26AE25AD24ACF3
:1008B50023120031AB58AA57A956A855120126C0D4
:1008C50004C005C006C007AF26AE25AD24AC23ABDA
:1008D5004CAA4BA94AA849120126D003D002D0013F
:1008E500D000120035C004C005C006C007E4FFFEF5
:1008F500FD7C40AB54AA53A952A851120126A80465
:10090500A905AA06AB07AF26AE25AD24AC23120078
:1009150031AB3EAA3DA93CA83B120035AB48AA47DE
:10092500A946A845120126D003D002D001D0001255
:1009350000351202E38E1C8F1DD3E51D9400E51CC6
:1009450064809480400B120DE0851C0D851D0E8082
:1009550019C3E51C6480948050157B2D120DE2C3EC
:10096500E4951DF50EE4951CF50D12050C8018E5B2
:100975001D451C70127B20120DE27BFF7A0D7973E9
:0B0985007D0B7F01120C3AAE1CAF1D71
:010990002244
:10099100E4F508F509AB50AA4FA94EA84DAF44AEF6
:1009A10043AD42AC411200318F268E258D248C231C
:1009B100AB34AA33A932A831AF44AE43AD42AC4106
:1009C1001200318F548E538D528C51AF3AAE39ADE6
:1009D10038AC37AB26AA25A924A8231200358F3AB3
:1009E1008E398D388C37AB4CAA4BA94AA8491201D4
:1009F10026C004C005C006C007AF26AE25AD24AC95
:100A010023AB58AA57A956A855120126D003D002E4
:100A1100D001D000120035C004C005C006C007AB2C
:100A210054AA53A952A851AF26AE25AD24AC231226
:100A31000031AB48AA47A946A845120126D003D0E8
:100A410002D001D0001200351202E38E088F09D3C3
:100A5100E5099522E5216480F8E508648098401253
:100A6100120DE0C3E5099522F50EE5089521F50D76
:100A7100802FC3E5099522E5216480F8E5086480AB
:100A81009850147B2D120DE2C3E5229509F50EE570
:100A9100219508F50D800A7B20120DE2E4F50DF594
:0E0AA1000E12050C850821850922AE08AF094A
:010AAF002224
:1006E800120CB4120D58758BFF758DFF7BFF7A0DB8
:1006F8007978E4FDFF120C3A7A0D797B7D05120CAE
:10070800367BFF7A0D797EE4FD7F01120C3A7A0D73
:1007180079847D0A120C3630A30AC2A4C2A5D2A6D7
:10072800D2A78008D2A4D2A5C2A6C2A720921AAF87
:1007380044AE43AD42AC41E4FBFA7980783F120005
:10074800358F448E438D428C4120931AAF44AE437B
:10075800AD42AC41E4FBFA798078BF1200358F4492
:100768008E438D428C41300007C200120D8D805699
:10077800300153C201D200852B2F852C3085342AB5
:10078800853329853228853127855034854F33852F
:100798004E32854D31AC2BAD2CE41202AA8F508E0F
:1007A8004F8D4E8C4DE4FFFEFDFCAB44AA43A9429D
:1007B800A84112022C6004D28E8004C28EC2971205
:1007C80009918E3F8F4020901AAF58AE57AD56AC66
:1007D80055E4FBFA7980783F1200358F588E578D93
:1007E800568C5520911AAF58AE57AD56AC55E4FB10
:1007F800FA798078BF1200358F588E578D568C55F0
:10080800AF58AE57AD56AC551202E38E0D8F0E7B26
:10081800037D02E4FF120512AF44AE43AD42AC4182
:100828001202E38E0D8F0E7B037D07E4FF12051283
:10083800853F0D85400E7D0512050E852F0D8530EF
:0D0848000E7B057D0DE4FF12051202071F57
:10002E0002034FE86480F8E933E83360110460F0AE
:10003E00ED33EC337009E8FCE9FDEAFEEBFF220438
:10004E0060DED3EB9FEA9EE99DE8C2E78CF0C2F733
:10005E0095F0400CE8CCF8E9CDF9EACEFAEBCFFBFF
:10006E0012031A85D0F05804700320D5B3E804703B
:10007E00075002B2D502035992D5EC0460F7E4CCD6
:10008E00C0E0C398F8603B94186008400DD0E0FBC8
:10009E00020331E4FBFAC9FC8028E830E406E4C927
:1000AE00FBE4CAFCE830E305E4C9CACBFCE854071C
:1000BE006010F8C3E913F9EA13FAEB13FBEC13FC27
:1000CE00D8F130F52FC3E49CFCEF9BFFEE9AFEEDCA
:1000DE0099FDD0E0FBEF4E4D4C701222DB03020374
:1000EE0056EC2CFCEF33FFEE33FEED33FDED30E737
:1000FE00EB020331EF2BFFEE3AFEED39FDD0E0FBC4
:10010E0050130BBB0003020359ED13FDEE13FEEF6C
:08011E0013FFEC13FC02033196
:10012600EC4D6011E8497017ED33EC3304600DE4D3
:10013600FCFFFEFD22E933E8330470F802034F1298
:10014600031A58046009E4CC248150062850090299
:100156000359284003020356C0E0EB4A7044B980B5
:1001660006D0E0FB020345EF4E701CBD8008EBFF96
:10017600EAFEE9FD80EBE98DF0A4FEE5F002020F50
:10018600E9CDF9EAFEEBFFEF89F0A4FCE5F0CE89B4
:10019600F0A42EFFE435F0CD89F0A42DFEE435F071
:1001A6008067EF4E7005BD80D780C3EF8BF0A4AC9F
:1001B600F0EE8BF0A42CFCE435F0F8EF8AF0A42CDA
:1001C600E5F038FCE433CB8DF0A42CFCE5F03BF8ED
:1001D600EE8AF0A42CFCE5F038F8E433CF89F0A4DD
:1001E6002CFCE5F038CF3400CE89F0A42FFFE5F0E3
:1001F6003EFEE433C98DF0A42EFEE5F039CD8AF03B
:10020600A42FFFE5F03EFEE43DFD33D0E0FB5007B2
:100216000BBB000F020359EC2CFCEF33FFEE33FE51
:06022600ED33FD0203317F
:10022C0074F8CC6480CCC86480C8F58204604FC379
:10023C00EB9FF5F0EA9E42F0E99D42F0E89C45F018
:10024C00603C501DE5825FFFE582D313CB5BCBF4A2
:10025C002B5582FB50280ABA002409B900200880CB
:10026C001DE5825BFBE582D313CF5FCFF4C3132F65
:10027C005582FF50090EBE00050DBD00010CC3EBED
:10028C009FF5F0EA9E42F0E99D42F0E89C45F06053
:09029C0007CC4820E701B3EC2275
:1002A50075F020800E75F010800575F0087D007ED4
:1002B500007F003392D530D5031204FEEC33401095
:1002C500EF33FFEE33FEED33FDEC33FCD5F0ED22DD
:0E02D500E5F0247EA2D513CC92E7CDCEFF2219
:1002E300EDD2E7CD33EC3392D524814006E4FFFE13
:1002F300FDFC22FCE4CFCECDCC24E0501174FF8072
:10030300EDC3CC13CCCD13CDCE13CECF13CF04700E
:07031300F030D5DE0204FE0C
:10031A00E9D2E7C933E833F892D5EDD2E7CD33EC29
:07032A0033FC5002B2D522A2
:10033100EC30E7100FBF000C0EBE00080DBD00042D
:100341000BEB6014A2D5EB13FCED92E7FD2274FFD9
:10035100FCFDFEFF22E480F8A2D574FF13FC7D8032
:03036100E480EF46
:03000000020AB041
:0C0AB000787FE4F6D8FD75815E020AF73D
:10036400E709F608DFFA8046E709F208DFFA803E7B
:1003740088828C83E709F0A3DFFA8032E309F60868
:10038400DFFA8078E309F208DFFA807088828C83D0
:10039400E309F0A3DFFA806489828A83E0A3F60884
:1003A400DFFA805889828A83E0A3F208DFFA804C5E
:1003B40080D280FA80C680D4806980F28033801035
:1003C40080A680EA809A80A880DA80E280CA80339E
:1003D40089828A83ECFAE493A3C8C582C8CCC58316
:1003E400CCF0A3C8C582C8CCC583CCDFE9DEE780E6
:1003F4000D89828A83E493A3F608DFF9ECFAA9F065
:10040400EDFB2289828A83ECFAE0A3C8C582C8CCBA
:10041400C583CCF0A3C8C582C8CCC583CCDFEADED3
:10042400E880DB89828A83E493A3F208DFF980CC35
:1004340088F0EF60010E4E60C388F0ED2402B4042E
:100444000050B9F582EB2402B4040050AF232345D5
:0604540082239003B47343
:10045A00BB010CE58229F582E5833AF583E0225057
:10046A0006E92582F8E622BBFE06E92582F8E222A1
:0D047A00E58229F582E5833AF583E49322BB
:10048700F8BB010DE58229F582E5833AF583E8F0AB
:10049700225006E92582C8F622BBFE05E92582C857
:0204A700F2223F
:1004A900BC000BBE0029EF8DF084FFADF022E4CC37
:1004B900F875F008EF2FFFEE33FEEC33FCEE9DEC00
:1004C900984005FCEE9DFE0FD5F0E9E4CEFD22ED46
:1004D900F8F5F0EE8420D21CFEADF075F008EF2F90
:1004E900FFED33FD4007985006D5F0F222C398FD81
:0504F9000FD5F0EA221E
:0E04FE00C3E49FFFE49EFEE49DFDE49CFC220F
:100ABC000206E8E493A3F8E493A34003F68001F262
:100ACC0008DFF48029E493A3F85407240CC8C3333B
:100ADC00C4540F4420C8834004F456800146F6DF0A
:100AEC00E4800B0102040810204080900B9DE47EF2
:100AFC00019360BCA3FF543F30E509541FFEE493FF
:100B0C00A360010ECF54C025E060A840B8E493A3C5
:100B1C00FAE493A3F8E493A3C8C582C8CAC583CAF0
:100B2C00F0A3C8C582C8CAC583CADFE9DEE780BEA8
:010BEB000009
:00000001FF
